:100000000C9446000C9465000C9465000C946500FB
:100010000C9465000C9465000C9465000C946500CC
:100020000C9465000C9465000C9465000C946500BC
:100030000C9465000C940C010C9465000C94650004
:100040000C9465000C9465000C9465000C9465009C
:100050000C9465000C9465000C9465000C9465008C
:100060000C9465000C9465000C9465000C9465007C
:100070000C9465000C9465000C9465000C9465006C
:100080000C9465000C9465000C94650011241FBE4F
:10009000CFEFD0E4DEBFCDBF11E0A0E0B1E0E2E9F8
:1000A000FCE000E00BBF02C007900D92A232B10746
:1000B000D9F721E0A2E2B1E001C01D92A435B20758
:1000C000E1F70E94A9040C9447060C940000CF931A
:1000D000DF9300D01F92CDB7DEB789837B836A831D
:1000E00089818A3031F48A819B81BC018DE00E9434
:1000F000670080EC90E0FC018081882F90E08072A6
:100100009927892BB1F386EC90E02981FC012083AB
:1001100080E090E00F900F900F90DF91CF910895C5
:10012000CF93DF9300D000D0CDB7DEB769837A8359
:100130008B839C8389819A81AB81BC8180930E01E2
:1001400090930F01A0931001B093110180910E01C3
:1001500090910F01A0911001B091110180932301A2
:1001600090932401A0932501B093260100000F90E5
:100170000F900F900F90DF91CF910895CF93DF9361
:10018000CDB7DEB781E890E02BE0FC01208388E862
:1001900090E02DE730E0FC01318320838FE690E092
:1001A00022E0FC01208384E890E0FC0111821082AF
:1001B00080910E0190910F01A0911001B091110159
:1001C0008093230190932401A0932501B0932601ED
:1001D0008FE590E02FE530E0F90120812068FC01F7
:1001E00020830000DF91CF910895CF93DF93CDB7A7
:1001F000DEB781E890E0FC0110820000DF91CF9132
:100200000895CF93DF93CDB7DEB781E080932201CD
:100210000000DF91CF9108951F920F9200905F0030
:100220000F92112400905B000F922F933F934F93F6
:100230005F936F937F938F939F93AF93BF93EF934E
:10024000FF93CF93DF93CDB7DEB7809123019091D9
:100250002401A0912501B09126010197A109B109BE
:100260008093230190932401A0932501B09326014C
:100270008091230190912401A0912501B091260144
:10028000892B8A2B8B2B91F40E94010180910E0106
:1002900090910F01A0911001B09111018093230161
:1002A00090932401A0932501B09326010000DF91D3
:1002B000CF91FF91EF91BF91AF919F918F917F91DE
:1002C0006F915F914F913F912F910F9000925B0042
:1002D0000F9000925F000F901F901895CF93DF93BF
:1002E000CDB7DEB72C970FB6F894DEBF0FBECDBFEB
:1002F0006D837E838F83988729873A874B875C87B6
:100300008D819E81AF81B88529853A854B855C8535
:10031000BC01CD010E942506DC01CB0189839A83B3
:10032000AB83BC8389819A81AB81BC81892B8A2B69
:100330008B2B29F489859A85AB85BC8511C089856D
:100340009A85AB85BC858D839E83AF83B887898171
:100350009A81AB81BC8189879A87AB87BC87D0CFD4
:10036000BC01CD012C960FB6F894DEBF0FBECDBFF9
:10037000DF91CF910895CF93DF9300D000D0CDB718
:10038000DEB78B836C838B8182958F70282F8B8156
:10039000882F90E082959295907F9827807F98276C
:1003A000822B8B838B81882F90E08C7C992795956D
:1003B000879595958795282F8B81882F90E083735B
:1003C0009927880F991F880F991F822B8B838B8108
:1003D000882F90E08A7A992795958795282F8B8189
:1003E000882F90E085759927880F991F822B8B8322
:1003F0008C818130C1F51A82198227C088E290E091
:1004000028E0FC01208388E290E028E230E0F90156
:100410002081422F2B81222F30E0098002C03595A8
:1004200027950A94E2F72170242BFC01208388E2AF
:1004300090E028E230E0F90120812260FC01208375
:1004400089819A8101969A83898389819A81089703
:10045000ACF288E290E028E230E0F90120812460EB
:10046000FC0120833AC08C818230B9F51A8219824E
:1004700027C08BE290E028E0FC0120838BE290E033
:100480002BE230E0F9012081422F2B81222F30E036
:10049000098002C0359527950A94E2F72170242B34
:1004A000FC0120838BE290E02BE230E0F901208117
:1004B0002260FC01208389819A8101969A83898335
:1004C00089819A810897ACF28BE290E02BE230E0D0
:1004D000F90120812460FC01208300000F900F901F
:1004E0000F900F90DF91CF910895CF93DF93CDB709
:1004F000DEB78AE790E02AE730E0F9012081206E3C
:10050000FC0120830000DF91CF910895CF93DF930A
:100510001F92CDB7DEB789838CE790E02981283020
:1005200028F02CE730E0F901208101C02981FC018D
:1005300020831092280106C00000809128018F5F5F
:1005400080932801809128018F30B0F300000F9034
:10055000DF91CF910895CF93DF9300D0CDB7DEB771
:100560009A83898389819A81009719F0019729F1EB
:1005700064C080914E0190914F01833F9140C0F043
:1005800080914E0190914F018730924088F4809184
:10059000520190915301833F914050F0809152015C
:1005A000909153018730924018F41A82198248C002
:1005B00081E090E09A83898343C080914E019091BD
:1005C0004F01833F914048F480911201803829F017
:1005D00080911201880F8093120180914E019091B9
:1005E0004F018730924048F080911201813029F00C
:1005F0008091120186958093120180915201909111
:100600005301823F914048F080912701882329F0CF
:100610008091270181508093270180915201909110
:1006200053018A3E914048F480912701843029F09B
:10063000809127018F5F809327011A821982000021
:1006400089819A810F900F90DF91CF910895CF9378
:10065000DF9300D0CDB7DEB79A83898389819A81F1
:10066000892B09F045C180914E0190914F0187304F
:10067000924008F449C080914E0190914F01853716
:10068000934068F084E690E0A0E0B0E08093180129
:1006900090931901A0931A01B0931B0185C080911A
:1006A0004E0190914F018B3F924068F08AEF90E0AD
:1006B000A0E0B0E08093180190931901A0931A0173
:1006C000B0931B0171C080914E0190914F01813810
:1006D000924068F084EF91E0A0E0B0E080931801D0
:1006E00090931901A0931A01B0931B015DC088EE8D
:1006F00093E0A0E0B0E08093180190931901A093DB
:100700001A01B0931B0150C080914E0190914F018E
:10071000893E914008F048C080914E0190914F0170
:100720008838910568F484E690E0A0E0B0E080931A
:10073000180190931901A0931A01B0931B0134C0C2
:1007400080914E0190914F018E3F910568F48AEFA0
:1007500090E0A0E0B0E08093180190931901A0937D
:100760001A01B0931B0120C080914E0190914F015E
:100770008437914068F484EF91E0A0E0B0E080938A
:10078000180190931901A0931A01B0931B010CC09A
:1007900088EE93E0A0E0B0E08093180190931901F7
:1007A000A0931A01B0931B018091520190915301C3
:1007B0008730924008F449C08091520190915301D2
:1007C0008537934068F084E690E0A0E0B0E0809345
:1007D000180190931901A0931A01B0931B0185C0D1
:1007E00080915201909153018B3F924068F08AEFC3
:1007F00090E0A0E0B0E08093180190931901A093DD
:100800001A01B0931B0171C0809152019091530164
:100810008138924068F084EF91E0A0E0B0E08093EE
:10082000180190931901A0931A01B0931B015DC0A8
:1008300088EE93E0A0E0B0E0809318019093190156
:10084000A0931A01B0931B0150C080915201909166
:100850005301893E914008F048C080915201909127
:1008600053018838910568F484E690E0A0E0B0E098
:100870008093180190931901A0931A01B0931B0162
:1008800034C080915201909153018E3F910568F4DC
:100890008AEF90E0A0E0B0E08093180190931901F6
:1008A000A0931A01B0931B0120C080915201909136
:1008B00053018437914068F484EF91E0A0E0B0E008
:1008C0008093180190931901A0931A01B0931B0112
:1008D0000CC088EE93E0A0E0B0E080931801909304
:1008E0001901A0931A01B0931B011A82198203C047
:1008F0001A821982000089819A810F900F90DF91EE
:10090000CF910895CF93DF9300D0CDB7DEB79A8310
:10091000898389819A81892B99F480912701882F75
:1009200090E08D5E9E4FFC01808162E00E94BB01E1
:100930008091120161E00E94BB011A82198202C0FB
:100940001A82198289819A810F900F90DF91CF913D
:1009500008950F931F93CF93DF93CDB7DEB72B97F7
:100960000FB6F894DEBF0FBECDBF8AE290E02FEF46
:10097000FC0120838BE290E0FC01108287E290E092
:100980002FEFFC01208388E290E0FC01108286E0DA
:10099000ECE1F1E0DE01169601900D928A95E1F707
:1009A00083E090E09C838B838FEF8D838D81809398
:1009B000290184E690E0A0E0B0E080932A019093C2
:1009C0002B01A0932C01B0932D0180912A019091CD
:1009D0002B01A0912C01B0912D0180932E019093B9
:1009E0002F01A0933001B09331018BEA92E09093F4
:1009F0003301809332018D818093340181E090E056
:100A0000A0E0B0E08093350190933601A0933701C8
:100A1000B09338018091350190913601A091370152
:100A2000B09138018093390190933A01A0933B0132
:100A3000B0933C0182E894E090933E0180933D01A5
:100A40008D8180933F0181E090E0A0E0B0E0809351
:100A5000400190934101A0934201B09343018091E2
:100A6000400190914101A0914201B09143018093D6
:100A7000440190934501A0934601B093470187E25A
:100A800093E090934901809348010E94750261E0D0
:100A900070E080E090E00E9490000E94BE0080E044
:100AA0000E94860288E790E0FC018081918190930A
:100AB0004F0180934E0181E00E94860288E790E01A
:100AC000FC01808191819093530180935201809128
:100AD000180190911901A0911A01B0911B01809306
:100AE0002A0190932B01A0932C01B0932D011A821F
:100AF00019829BC089819A81880F991F9E012F5F5F
:100B00003F4F820F931F0596FC0180819181FC016C
:100B1000258136814781508589819A81880F991F67
:100B2000BE016F5F7F4F860F971F0596FC01808186
:100B30009181FC0181819281A381B48128173907B9
:100B40004A075B0708F445C089819A81880F991F7D
:100B50009E012F5F3F4F820F931F0596FC0100817E
:100B6000118189819A81880F991F9E012F5F3F4FC4
:100B7000820F931F0596FC0180819181FC012185E4
:100B8000328589819A81880F991FAE014F5F5F4F2F
:100B9000840F951F0596FC0180819181FC01808165
:100BA000082E000C990BF9010995F80180838981C1
:100BB0009A81880F991F9E012F5F3F4F820F931FCD
:100BC0000596FC0180819181FC01158216821782B5
:100BD000108689819A81880F991F9E012F5F3F4F50
:100BE000820F931F0596FC012081318189819A81B2
:100BF000880F991FAE014F5F5F4F840F951F0596B9
:100C0000FC0180819181FC0185819681A781B0855D
:100C10000196A11DB11DF90185839683A783B08735
:100C200089819A8101969A83898329813A818B816E
:100C30009C812817390708F45DCF000080912201BC
:100C40008823E1F3109222012ACFA1E21A2EAA1BD7
:100C5000BB1BFD010DC0AA1FBB1FEE1FFF1FA2176C
:100C6000B307E407F50720F0A21BB30BE40BF50B69
:100C7000661F771F881F991F1A9469F760957095F2
:100C8000809590959B01AC01BD01CF010895F8942A
:020C9000FFCF94
:100C920000000002000000006700000000000100E8
:100CA2000000801E1D1B170F6400000029013F0178
:020CB20034010B
:00000001FF
