:100000000C9446000C9465000C9465000C946500FB
:100010000C9465000C9465000C9465000C946500CC
:100020000C9465000C9465000C9465000C946500BC
:100030000C9465000C940C010C9465000C94650004
:100040000C9465000C9465000C9465000C9465009C
:100050000C9465000C9465000C9465000C9465008C
:100060000C9465000C9465000C9465000C9465007C
:100070000C9465000C9465000C9465000C9465006C
:100080000C9465000C9465000C94650011241FBE4F
:10009000CFEFD0E4DEBFCDBF11E0A0E0B1E0EEEEE7
:1000A000FAE000E00BBF02C007900D92A632B10744
:1000B000D9F721E0A6E2B1E001C01D92A735B20751
:1000C000E1F70E94E7030C9475050C940000CF93B0
:1000D000DF9300D01F92CDB7DEB789837B836A831D
:1000E00089818A3031F48A819B81BC018DE00E9434
:1000F000670080EC90E0FC018081882F90E08072A6
:100100009927892BB1F386EC90E02981FC012083AB
:1001100080E090E00F900F900F90DF91CF910895C5
:10012000CF93DF9300D000D0CDB7DEB769837A8359
:100130008B839C8389819A81AB81BC8180930E01E2
:1001400090930F01A0931001B093110180910E01C3
:1001500090910F01A0911001B0911101809327019E
:1001600090932801A0932901B0932A0100000F90D9
:100170000F900F900F90DF91CF910895CF93DF9361
:10018000CDB7DEB781E890E02BE0FC01208388E862
:1001900090E02DE730E0FC01318320838FE690E092
:1001A00022E0FC01208384E890E0FC0111821082AF
:1001B00080910E0190910F01A0911001B091110159
:1001C0008093270190932801A0932901B0932A01DD
:1001D0008FE590E02FE530E0F90120812068FC01F7
:1001E00020830000DF91CF910895CF93DF93CDB7A7
:1001F000DEB781E890E0FC0110820000DF91CF9132
:100200000895CF93DF93CDB7DEB781E080932601C9
:100210000000DF91CF9108951F920F9200905F0030
:100220000F92112400905B000F922F933F934F93F6
:100230005F936F937F938F939F93AF93BF93EF934E
:10024000FF93CF93DF93CDB7DEB7809127019091D5
:100250002801A0912901B0912A010197A109B109B2
:100260008093270190932801A0932901B0932A013C
:100270008091270190912801A0912901B0912A0134
:10028000892B8A2B8B2B91F40E94010180910E0106
:1002900090910F01A0911001B0911101809327015D
:1002A00090932801A0932901B0932A010000DF91C7
:1002B000CF91FF91EF91BF91AF919F918F917F91DE
:1002C0006F915F914F913F912F910F9000925B0042
:1002D0000F9000925F000F901F901895CF93DF93BF
:1002E000CDB7DEB72C970FB6F894DEBF0FBECDBFEB
:1002F0006D837E838F83988729873A874B875C87B6
:100300008D819E81AF81B88529853A854B855C8535
:10031000BC01CD010E945305DC01CB0189839A8386
:10032000AB83BC8389819A81AB81BC81892B8A2B69
:100330008B2B29F489859A85AB85BC8511C089856D
:100340009A85AB85BC858D839E83AF83B887898171
:100350009A81AB81BC8189879A87AB87BC87D0CFD4
:10036000BC01CD012C960FB6F894DEBF0FBECDBFF9
:10037000DF91CF910895CF93DF9300D000D0CDB718
:10038000DEB78B836C838B8182958F70282F8B8156
:10039000882F90E082959295907F9827807F98276C
:1003A000822B8B838B81882F90E08C7C992795956D
:1003B000879595958795282F8B81882F90E083735B
:1003C0009927880F991F880F991F822B8B838B8108
:1003D000882F90E08A7A992795958795282F8B8189
:1003E000882F90E085759927880F991F822B8B8322
:1003F0008C818130C1F51A82198227C088E290E091
:1004000028E0FC01208388E290E028E230E0F90156
:100410002081422F2B81222F30E0098002C03595A8
:1004200027950A94E2F72170242BFC01208388E2AF
:1004300090E028E230E0F90120812260FC01208375
:1004400089819A8101969A83898389819A81089703
:10045000ACF288E290E028E230E0F90120812460EB
:10046000FC0120833AC08C818230B9F51A8219824E
:1004700027C08BE290E028E0FC0120838BE290E033
:100480002BE230E0F9012081422F2B81222F30E036
:10049000098002C0359527950A94E2F72170242B34
:1004A000FC0120838BE290E02BE230E0F901208117
:1004B0002260FC01208389819A8101969A83898335
:1004C00089819A810897ACF28BE290E02BE230E0D0
:1004D000F90120812460FC01208300000F900F901F
:1004E0000F900F90DF91CF910895CF93DF93CDB709
:1004F000DEB78AE790E02AE730E0F9012081206E3C
:10050000FC0120830000DF91CF910895CF93DF930A
:100510001F92CDB7DEB789838CE790E02981283020
:1005200028F02CE730E0F901208101C02981FC018D
:10053000208310922B0106C0000080912B018F5F59
:1005400080932B0180912B018F30B0F300000F902E
:10055000DF91CF910895CF93DF93CDB7DEB72A9780
:100560000FB6F894DEBF0FBECDBF9A878987898505
:100570009A85009719F0019729F1D5C08091510112
:1005800090915201833F9140C0F080915101909130
:1005900052018730924088F4809155019091560124
:1005A000833F914050F080915501909156018730E2
:1005B000924018F41A861986B9C081E090E09A87B3
:1005C0008987B4C08091510190915201833F91403D
:1005D00050F51A82198223C089819A818E5E9E4FBE
:1005E000FC0180818823B1F089819A818E5E9E4FC3
:1005F000FC018081803871F089819A818E5E9E4FE6
:10060000FC018081282F220F89819A818E5E9E4F66
:10061000FC01208389819A8101969A83898389814B
:100620009A810597CCF280915101909152018730C7
:10063000924050F11C821B8223C08B819C818E5E74
:100640009E4FFC0180818823B1F08B819C818E5E5E
:100650009E4FFC018081813071F08B819C818E5E88
:100660009E4FFC018081282F26958B819C818E5E78
:100670009E4FFC0120838B819C8101969C838B8300
:100680008B819C810597CCF2809155019091560108
:10069000833F9140F8F4809112018823D9F41E829F
:1006A0001D8212C08D819E8101968E5E9E4FFC013F
:1006B00020818D819E818E5E9E4FFC0120838D81E5
:1006C0009E8101969E838D838D819E81049754F334
:1006D00010921601809155019091560187309240F9
:1006E00010F1809116018823F1F484E090E098875E
:1006F0008F8312C08F81988501978E5E9E4FFC017B
:1007000020818F8198858E5E9E4FFC0120838F8192
:100710009885019798878F838F8198851816190679
:100720004CF3109212011A861986000089859A8569
:100730002A960FB6F894DEBF0FBECDBFDF91CF91E2
:100740000895CF93DF9300D0CDB7DEB79A83898326
:1007500089819A810F900F90DF91CF910895CF9367
:10076000DF9300D000D0CDB7DEB79C838B838B8125
:100770009C81892B09F51A82198217C089819A8177
:100780008E5E9E4FFC01808161E00E94BB018981E9
:100790009A81895E9E4FFC01808162E00E94BB01CC
:1007A00089819A8101969A83898389819A810597A3
:1007B0002CF31C821B8202C01C821B828B819C81B9
:1007C0000F900F900F900F90DF91CF9108950F939E
:1007D0001F93CF93DF93CDB7DEB72B970FB6F89467
:1007E000DEBF0FBECDBF8AE290E02FEFFC01208379
:1007F0008BE290E0FC01108287E290E02FEFFC0199
:10080000208388E290E0FC01108286E0E0E2F1E0E3
:10081000DE01169601900D928A95E1F783E090E053
:100820009C838B838FEF8D838D8180932C0184E655
:1008300090E0A0E0B0E080932D0190932E01A09372
:100840002F01B093300180912D0190912E01A09144
:100850002F01B09130018093310190933201A09328
:100860003301B09334018BEA92E090933601809388
:1008700035018D818093370181E090E0A0E0B0E008
:100880008093380190933901A0933A01B0933B01D2
:100890008091380190913901A0913A01B0913B01CA
:1008A00080933C0190933D01A0933E01B0933F01A2
:1008B0008FEA93E090934101809340018D81809372
:1008C000420181E090E0A0E0B0E08093430190938A
:1008D0004401A0934501B09346018091430190915A
:1008E0004401A0914501B091460180934701909346
:1008F0004801A0934901B0934A0181EA93E09093A3
:100900004C0180934B010E94750261E070E080E031
:1009100090E00E9490000E94BE0080E00E9486024B
:1009200088E790E0FC01808191819093520180934F
:10093000510181E00E94860288E790E0FC018081FD
:10094000918190935601809355011A8219829BC020
:1009500089819A81880F991F9E012F5F3F4F820FD7
:10096000931F0596FC0180819181FC0125813681D0
:100970004781508589819A81880F991FBE016F5FD9
:100980007F4F860F971F0596FC0180819181FC01A6
:1009900081819281A381B481281739074A075B07B7
:1009A00008F445C089819A81880F991F9E012F5FA5
:1009B0003F4F820F931F0596FC01008111818981B1
:1009C0009A81880F991F9E012F5F3F4F820F931FBF
:1009D0000596FC0180819181FC0121853285898108
:1009E0009A81880F991FAE014F5F5F4F840F951F4B
:1009F0000596FC0180819181FC018081082E000C0C
:100A0000990BF9010995F801808389819A81880FF2
:100A1000991F9E012F5F3F4F820F931F0596FC0188
:100A200080819181FC01158216821782108689814E
:100A30009A81880F991F9E012F5F3F4F820F931F4E
:100A40000596FC012081318189819A81880F991F47
:100A5000AE014F5F5F4F840F951F0596FC018081AB
:100A60009181FC0185819681A781B0850196A11DA8
:100A7000B11DF90185839683A783B08789819A8107
:100A800001969A83898329813A818B819C812817D9
:100A9000390708F45DCF0000809126018823E1F337
:100AA000109226013ACFA1E21A2EAA1BBB1BFD0110
:100AB0000DC0AA1FBB1FEE1FFF1FA217B307E4073D
:100AC000F50720F0A21BB30BE40BF50B661F771F95
:100AD000881F991F1A9469F7609570958095909575
:0E0AE0009B01AC01BD01CF010895F894FFCF3A
:100AEE00000000020000000067000000000001008E
:100AFE0000004000000000FEFDFBF7EF6400000068
:060B0E002C014201370139
:00000001FF
