:100000000C9446000C9465000C9465000C946500FB
:100010000C9465000C9465000C9465000C946500CC
:100020000C9465000C9465000C9465000C946500BC
:100030000C9465000C940C010C9465000C94650004
:100040000C9465000C9465000C9465000C9465009C
:100050000C9465000C9465000C9465000C9465008C
:100060000C9465000C9465000C9465000C9465007C
:100070000C9465000C9465000C9465000C9465006C
:100080000C9465000C9465000C94650011241FBE4F
:10009000CFEFD0E4DEBFCDBF11E0A0E0B1E0E8E1FA
:1000A000FAE000E00BBF02C007900D92AE31B1073D
:1000B000D9F721E0AEE1B1E001C01D92AD34B20745
:1000C000E1F70E947B030C940A050C940000CF9387
:1000D000DF9300D01F92CDB7DEB789837B836A831D
:1000E00089818A3031F48A819B81BC018DE00E9434
:1000F000670080EC90E0FC018081882F90E08072A6
:100100009927892BB1F386EC90E02981FC012083AB
:1001100080E090E00F900F900F90DF91CF910895C5
:10012000CF93DF9300D000D0CDB7DEB769837A8359
:100130008B839C8389819A81AB81BC8180930E01E2
:1001400090930F01A0931001B093110180910E01C3
:1001500090910F01A0911001B091110180931F01A6
:1001600090932001A0932101B093220100000F90F1
:100170000F900F900F90DF91CF910895CF93DF9361
:10018000CDB7DEB781E890E02BE0FC01208388E862
:1001900090E02DE730E0FC01318320838FE690E092
:1001A00022E0FC01208384E890E0FC0111821082AF
:1001B00080910E0190910F01A0911001B091110159
:1001C00080931F0190932001A0932101B0932201FD
:1001D0008FE590E02FE530E0F90120812068FC01F7
:1001E00020830000DF91CF910895CF93DF93CDB7A7
:1001F000DEB781E890E0FC0110820000DF91CF9132
:100200000895CF93DF93CDB7DEB781E080931E01D1
:100210000000DF91CF9108951F920F9200905F0030
:100220000F92112400905B000F922F933F934F93F6
:100230005F936F937F938F939F93AF93BF93EF934E
:10024000FF93CF93DF93CDB7DEB780911F019091DD
:100250002001A0912101B09122010197A109B109CA
:1002600080931F0190932001A0932101B09322015C
:1002700080911F0190912001A0912101B091220154
:10028000892B8A2B8B2B91F40E94010180910E0106
:1002900090910F01A0911001B091110180931F0165
:1002A00090932001A0932101B09322010000DF91DF
:1002B000CF91FF91EF91BF91AF919F918F917F91DE
:1002C0006F915F914F913F912F910F9000925B0042
:1002D0000F9000925F000F901F901895CF93DF93BF
:1002E000CDB7DEB72C970FB6F894DEBF0FBECDBFEB
:1002F0006D837E838F83988729873A874B875C87B6
:100300008D819E81AF81B88529853A854B855C8535
:10031000BC01CD010E94E804DC01CB0189839A83F2
:10032000AB83BC8389819A81AB81BC81892B8A2B69
:100330008B2B29F489859A85AB85BC8511C089856D
:100340009A85AB85BC858D839E83AF83B887898171
:100350009A81AB81BC8189879A87AB87BC87D0CFD4
:10036000BC01CD012C960FB6F894DEBF0FBECDBFF9
:10037000DF91CF910895CF93DF9300D000D0CDB718
:10038000DEB78B836C838B8182958F70282F8B8156
:10039000882F90E082959295907F9827807F98276C
:1003A000822B8B838B81882F90E08C7C992795956D
:1003B000879595958795282F8B81882F90E083735B
:1003C0009927880F991F880F991F822B8B838B8108
:1003D000882F90E08A7A992795958795282F8B8189
:1003E000882F90E085759927880F991F822B8B8322
:1003F0008C818130C1F51A82198227C088E290E091
:1004000028E0FC01208388E290E028E230E0F90156
:100410002081422F2B81222F30E0098002C03595A8
:1004200027950A94E2F72170242BFC01208388E2AF
:1004300090E028E230E0F90120812260FC01208375
:1004400089819A8101969A83898389819A81089703
:10045000ACF288E290E028E230E0F90120812460EB
:10046000FC0120833AC08C818230B9F51A8219824E
:1004700027C08BE290E028E0FC0120838BE290E033
:100480002BE230E0F9012081422F2B81222F30E036
:10049000098002C0359527950A94E2F72170242B34
:1004A000FC0120838BE290E02BE230E0F901208117
:1004B0002260FC01208389819A8101969A83898335
:1004C00089819A810897ACF28BE290E02BE230E0D0
:1004D000F90120812460FC01208300000F900F901F
:1004E0000F900F90DF91CF910895CF93DF93CDB709
:1004F000DEB78AE790E02AE730E0F9012081206E3C
:10050000FC0120830000DF91CF910895CF93DF930A
:1005100000D0CDB7DEB79A83898389819A818130F3
:10052000910541F182309105A9F1892B09F042C072
:1005300080914B0190914C01883F914019F41A82AF
:1005400019823BC080914B0190914C01893E9140B2
:1005500028F481E090E09A8389832FC080914B0139
:1005600090914C018830924040F182E090E09A8373
:10057000898323C080911201803821F481E0809327
:10058000120105C080911201880F809312011A8216
:10059000198214C080911201813021F480E8809387
:1005A000120105C0809112018695809312011A8272
:1005B000198204C01A82198201C0000089819A81BF
:1005C0000F900F90DF91CF910895CF93DF9300D0DC
:1005D000CDB7DEB79A83898389819A81892B09F007
:1005E0005FC080914B0190914C018537934068F03A
:1005F00084E690E0A0E0B0E08093140190931501B0
:10060000A0931601B093170148C080914B019091BF
:100610004C018B3F924068F08AEF90E0A0E0B0E0A0
:100620008093140190931501A0931601B0931701C4
:1006300034C080914B0190914C018138924068F018
:1006400084EF91E0A0E0B0E0809314019093150155
:10065000A0931601B093170120C080914B01909197
:100660004C018730924068F088EE93E0A0E0B0E063
:100670008093140190931501A0931601B093170174
:100680000CC088EE93E0A0E0B0E08093140190935A
:100690001501A0931601B09317011A82198203C0A5
:1006A0001A821982000089819A810F900F90DF9140
:1006B000CF910895CF93DF9300D0CDB7DEB79A8363
:1006C000898389819A81892B69F48091130162E081
:1006D0000E94BB018091120161E00E94BB011A825D
:1006E000198202C01A82198289819A810F900F9013
:1006F000DF91CF9108950F931F93CF93DF93CDB7E1
:10070000DEB72B970FB6F894DEBF0FBECDBF8AE2DF
:1007100090E02FEFFC0120838BE290E0FC0110823F
:1007200087E290E02FEFFC01208388E290E0FC015B
:10073000108286E0E8E1F1E0DE01169601900D926C
:100740008A95E1F783E090E09C838B838FEF8D8324
:100750008D818093240184E690E0A0E0B0E0809356
:10076000250190932601A0932701B0932801809141
:10077000250190912601A0912701B0912801809335
:10078000290190932A01A0932B01B0932C0186E8B4
:1007900092E090932E0180932D018D8180932F0103
:1007A00081E090E0A0E0B0E08093300190933101CF
:1007B000A0933201B09333018091300190913101C7
:1007C000A0913201B09133018093340190933501AF
:1007D000A0933601B09337018AE593E090933901F5
:1007E000809338018D8180933A0181E090E0A0E010
:1007F000B0E080933B0190933C01A0933D01B09306
:100800003E0180913B0190913C01A0913D01B0914E
:100810003E0180933F0190934001A0934101B0932A
:10082000420185EE92E090934401809343010E943F
:10083000750261E070E080E090E00E9490000E940C
:10084000BE0088E790E0FC018081918190934C018B
:1008500080934B018091140190911501A091160194
:10086000B09117018093250190932601A093270151
:10087000B09328011A8219829BC089819A81880FBE
:10088000991F9E012F5F3F4F820F931F0596FC011A
:1008900080819181FC012581368147815085898144
:1008A0009A81880F991FBE016F5F7F4F860F971F38
:1008B0000596FC0180819181FC0181819281A38157
:1008C000B481281739074A075B0709F045C08981B9
:1008D0009A81880F991F9E012F5F3F4F820F931FB0
:1008E0000596FC010081118189819A81880F991FE9
:1008F0009E012F5F3F4F820F931F0596FC01808161
:100900009181FC012185328589819A81880F991F07
:10091000AE014F5F5F4F840F951F0596FC018081EC
:100920009181FC018081082E000C990BF901099539
:10093000F801808389819A81880F991F9E012F5F1A
:100940003F4F820F931F0596FC0180819181FC012E
:10095000158216821782108689819A81880F991FC5
:100960009E012F5F3F4F820F931F0596FC01208150
:10097000318189819A81880F991FAE014F5F5F4F46
:10098000840F951F0596FC0180819181FC01858172
:100990009681A781B0850196A11DB11DF9018583BE
:1009A0009683A783B08789819A8101969A838983E8
:1009B00029813A818B819C812817390708F45DCF02
:1009C000000080911E018823E1F310921E0139CFAF
:1009D000A1E21A2EAA1BBB1BFD010DC0AA1FBB1F43
:1009E000EE1FFF1FA217B307E407F50720F0A21BB5
:1009F000B30BE40BF50B661F771F881F991F1A9422
:100A000069F760957095809590959B01AC01BD014B
:080A1000CF010895F894FFCF17
:100A18000000000200000000670000000000010064
:0E0A2800000080FE6400000024013A012F014E
:00000001FF
